:060000000A128A11E62F2E
:1004FA0064008001840A04060319003404067E2A73
:10050A00882A1A086400831203138C1A8D2A8E2AE9
:10051A00862A0800912A6400831203138C1E962AE5
:10052A00972A902A1A0808004534523465346134EF
:10053A006434653472340034FF347F340034003458
:10054A00F000A82A640083160313981CAD2AAE2A69
:10055A00A72A70088312031399000800F100F0011A
:10056A003A3071020318BA2ABB2AC32A3030710200
:10057A00031CC02AC12AC32AF001F00A700C080021
:10058A007E088A007F0882000A128A11C5220A128E
:10059A008A118000840A04087D0603190034FF0AC0
:1005AA000319FE0AC92A831203132908F30028082B
:1005BA00F2002708F1002608F0000030F7000F309B
:1005CA00F6004230F5004030F4000A128A118D23F9
:1005DA000A128A1170088316031399000800F001A1
:1005EA00F10170083C3E84001430831300020318A2
:1005FA00FF2A002B042B70083C3E84008001013046
:10060A00F0070318F10A0030F1077108803AFF0079
:10061A0080307F02031D132B08307002031C162B37
:10062A00172BF62A0800F400F501F6013C2B0A12F2
:10063A008A118F220A128A11F20075087407F300D0
:10064A007308840072088313800075087407F20027
:10065A00720884000D300006031D342B352B362B0F
:10066A00462B0130F5070318F60A0030F607710821
:10067A007602031D422B70087502031C452B462B7C
:10068A001C2B08000030FC000030FB000030FA0090
:10069A000030F900701C522B532B6A2B7408F9078F
:1006AA00750803110318013E03195C2BFA07760833
:1006BA0003110318013E0319632BFB077708031183
:1006CA000318013E03196A2BFC070130F8000310D6
:1006DA00F40DF50DF60DF70DF80B6C2B0130031028
:1006EA00F30CF20CF10CF00CFF3E031D742B730893
:1006FA00720471047004031D832B842B4F2B7C0816
:10070A00F3007B08F2007A08F1007908F00008008B
:10071A0083120313A101F31F932B942BA12BF0092E
:10072A00F109F209F309F00A0319F10A0319F20AA5
:10073A000319F30AA101A10AF71FA42BA52BB42BB5
:10074A00F409F509F609F709F40A0319F50A031970
:10075A00F60A0319F70A0130F8007808A1060030F2
:10076A00A5000030A4000030A3000030A2007308E6
:10077A007204710470040319C32BC42B112CA00139
:10078A00A00AD42B0130F8000310F00DF10DF20D80
:10079A00F30DF80BC92B0130F8007808A007F31FF6
:1007AA00D72BD82BC72B0130F8000310A20DA30DAD
:1007BA00A40DA50DF80BDA2B73087702031DEF2B96
:1007CA0072087602031DEF2B71087502031DEF2BC9
:1007DA0070087402031CF22BF32B022C7008F4022B
:1007EA007108031C710FF5027208031C720FF602DE
:1007FA007308031C730FF702221401300310F30C61
:10080A00F20CF10CF00CFF3E031D032C0130A00288
:10081A00031D102C112CD82B21080319152C162C6A
:10082A00212CA209A309A409A509A20A0319A30A4A
:10083A000319A40A0319A50A2508F3002408F200DB
:10084A002308F1002208F000080083120313AD0008
:10085A002D08840083130008A4002408AE00013088
:10086A00A4002408AD0720302E0603193D2C3E2C87
:10087A002D2C09302E060319432C442C2D2C003024
:10088A00AC000030AB000030AA000030A900A8017B
:10089A002D302E06031D522C532C632C0130A4003C
:1008AA002408A8072D08840083130008A40024083C
:1008BA00AE000130A4002408AD07A42C2B302E066C
:1008CA00031D682C692CA42C572C831203132E08A1
:1008DA00D03EA400A501A601A7012C08F3002B080D
:1008EA00F2002A08F1002908F0000030F700003071
:1008FA00F6000030F5000A30F4000A128A11472384
:10090A000A128A11700883120313A40771080318C4
:10091A00710F902C912CA50772080318720F962C50
:10092A00972CA60773080318730AA7072708AC00B1
:10093A002608AB002508AA002408A900572C2E086F
:10094A000A128A11B3220A128A110318AD2CAE2C8C
:10095A006A2C8312031328080319B42CB52CC52C4E
:10096A002909A0002A09A1002B09A2002C09A30029
:10097A00A00A0319A10A0319A20A0319A30ACD2C72
:10098A002C08A3002B08A2002A08A1002908A0000D
:10099A00080083120313850183160313850183124A
:1009AA000313860183160313860183120313870137
:1009BA009030831603138700831203138801FF30D4
:1009CA008316031388008312031389018316031302
:1009DA008901003083120313A9000130A800C23034
:1009EA00A7000030A6000A128A11D8220A128A1118
:1009FA00243083160313980090308312031398004F
:100A0A0083160313011181140114811564000A125B
:100A1A008A1185220A128A110830F0000030F1008A
:100A2A003C300A128A1118230A128A110A128A11F0
:100A3A00F4220A128A115230831203133C06031D50
:100A4A00272D282D5E2E091187123B08B7003A0878
:100A5A00B6003908B5003808B400462E34083F39C4
:100A6A0085003408AF003508B0003608B1003708F1
:100A7A00B2000630B300320DB20CB10CB00CAF0CA0
:100A8A00B30B402D2F184A2D4E2D83120313061433
:100A9A00512D8312031306103408AF003508B00035
:100AAA003608B1003708B2000730B300320DB20C75
:100ABA00B10CB00CAF0CB30B5B2D2F18652D692D43
:100ACA008312031386146C2D8312031386103408C1
:100ADA00AF003508B0003608B1003708B200083058
:100AEA00B300320DB20CB10CB00CAF0CB30B762DB7
:100AFA002F18802D842D831203130615872D831238
:100B0A00031306113408AF003508B0003608B100E7
:100B1A003708B2000930B300320DB20CB10CB00C78
:100B2A00AF0CB30B912D2F189B2D9F2D83120313FE
:100B3A000616A22D8312031306123408AF003508D5
:100B4A00B0003608B1003708B2000A30B300320DDF
:100B5A00B20CB10CB00CAF0CB30BAC2D2F18B62DD8
:100B6A00BA2D831203138616BD2D83120313861220
:100B7A003408AF003508B0003608B1003708B200B3
:100B8A000B30B300320DB20CB10CB00CAF0CB30B7E
:100B9A00C72D2F18D12DD52D831203130714D82D45
:100BAA008312031307103408AF003508B000360863
:100BBA00B1003708B2000C30B300320DB20CB10CE0
:100BCA00B00CAF0CB30BE22D2F18EC2DF02D8312C5
:100BDA0003138714F32D8312031387103408AF000D
:100BEA003508B0003608B1003708B2000D30B3003E
:100BFA00320DB20CB10CB00CAF0CB30BFD2D2F188B
:100C0A00072E0B2E8312031307150E2E83120313BE
:100C1A0007113408AF003508B0003608B1003708AC
:100C2A00B2000E30B300320DB20CB10CB00CAF0CE6
:100C3A00B30B182E2F18222E262E831203130914F3
:100C4A00292E8312031309102A2E2B2E2C2E2D2E19
:100C5A008312031308080A128A11A5220A128A119A
:100C6A006400013083120313B40700300318013003
:100C7A00B507003003180130B607003003180130F9
:100C8A00B7074F08803AFF003708803A7F02031DF2
:100C9A00582E36084E02031D582E35084D02031DE4
:100CAA00582E34084C0203185B2E5C2E332D0B2D64
:100CBA000B2D4C303C06031D632E642E772F3D30DE
:100CCA000A128A112A240A128A1183120313230888
:100CDA00B7002208B6002108B5002008B40034087D
:100CEA003F3985003408AF003508B0003608B10036
:100CFA003708B2000630B300320DB20CB10CB00C9A
:100D0A00AF0CB30B812E2F188B2E8F2E8312031349
:100D1A000614922E8312031306103408AF00350806
:100D2A00B0003608B1003708B2000730B300320D00
:100D3A00B20CB10CB00CAF0CB30B9C2E2F18A62E14
:100D4A00AA2E831203138614AD2E83120313861060
:100D5A003408AF003508B0003608B1003708B200D1
:100D6A000830B300320DB20CB10CB00CAF0CB30B9F
:100D7A00B72E2F18C12EC52E831203130615C82E9F
:100D8A008312031306113408AF003508B000360881
:100D9A00B1003708B2000930B300320DB20CB10C01
:100DAA00B00CAF0CB30BD22E2F18DC2EE02E831210
:100DBA0003130616E32E8312031306123408AF0038
:100DCA003508B0003608B1003708B2000A30B3005F
:100DDA00320DB20CB10CB00CAF0CB30BED2E2F18B8
:100DEA00F72EFB2E831203138616FE2E831203138D
:100DFA0086123408AF003508B0003608B10037084B
:100E0A00B2000B30B300320DB20CB10CB00CAF0C07
:100E1A00B30B082F2F18122F162F83120313071440
:100E2A00192F8312031307103408AF003508B000D6
:100E3A003608B1003708B2000C30B300320DB20CDC
:100E4A00B10CB00CAF0CB30B232F2F182D2F312F51
:100E5A00831203138714342F831203138710340861
:100E6A00AF003508B0003608B1003708B2000D30BF
:100E7A00B300320DB20CB10CB00CAF0CB30B3E2F59
:100E8A002F18482F4C2F8312031307154F2F831245
:100E9A00031307113408AF003508B0003608B10053
:100EAA003708B2000E30B300320DB20CB10CB00CE0
:100EBA00AF0CB30B592F2F18632F672F831203130D
:100ECA0009146A2F8312031309106B2F6C2F6D2FCD
:100EDA006E2F8312031308080A128A11A5220A1216
:100EEA008A110B2D72303C06031D7C2F7D2FB52FE6
:100EFA003B08B7003A08B6003908B5003808B4000C
:100F0A009E2F043083120313AF00AF0B8A2F000009
:100F1A006400013083120313B40700300318013050
:100F2A00B507003003180130B60700300318013046
:100F3A00B7074F08803AFF003708803A7F02031D3F
:100F4A00B02F36084E02031DB02F35084D02031D7F
:100F5A00B02F34084C020318B32FB42F862F0B2D51
:100F6A006D303C06031DBA2FBB2FCC2F3D300A1221
:100F7A008A112A240A128A11831203132308BB0036
:100F8A002208BA002108B9002008B8000B2D4D30FC
:100F9A003C06031DD12FD22F5D2E3D300A128A1135
:100FAA002A240A128A11831203132308CF00220863
:100FBA00CE002108CD002008CC000B2D0A128A1180
:100FCA00002883135030FD000230FE009930FF00E4
:100FDA00443084000A128A11C9220A128A11343052
:100FEA00840044300A128A117D220A128A1183016E
:060FFA000A128A11CE2C40
:08400000FF3FFF3FFF3FFF3FC0
:02400E00FE3F73
:00000001FF
